:030000000204FFF8
:0C04FF00787FE4F6D8FD758123020546E5
:04000300021D0000DA
:10038200C2A0E4F59075A0CFC2B4C2A1120606E5E0
:100392001CB401FBE51F249F700302044124FD707D
:1003A200030204592434B4090050E49003BB75F0ED
:1003B20003A4C58325F0C583730204170204240233
:1003C20003D60203910203FD02040A0203F00204AF
:1003D200310203E31206D8C2AC851F993099FD8021
:1003E2006C1206E1C2AC851F993099FD805F12063E
:1003F200EAC2AC851F993099FD80521206F3C2AC55
:10040200851F993099FD80451206FCC2AC851F9963
:100412003099FD8038120008C2AC851F993099FDD1
:10042200802B120705C2AC851F993099FD801E12E0
:10043200000E12058BC2AC851F993099FD800E12F9
:10044200000E12067CC2AC851F993099FDC299D26A
:10045200ACE4F51C02039112000E1206A9C2AC858F
:0F0462001F993099FDC299D2ACE4F51C020391A9
:030023000206CF03
:0906CF0085991FC298751C0132C7
:10067C00051EE51E7002051DD3941EE51D94004059
:07068C0005E4F51DF51E2237
:1006A900E51E151E7002151DE51E451D7005F51D7B
:0406B900751E1E226A
:10069300EF1FAA0670011E4A600BE4FDEDC394C868
:0506A30050EE0D80F790
:0106A800222F
:1006BD005573617274496E6974206973204F4B21B3
:0206CD000A0021
:10060600758921759850E4F587758DFD758BFD7597
:100616008CEC758A78D28CD28ED2A9D2ACD2AFD2DB
:0A062600997BFF7A0679BD02008877
:0906D800D280C281D282C28322C9
:0906E100C280D281C282D28322C0
:0906EA00C280C281C282D28322C7
:0906F300C280D281C282C28322BE
:0906FC00C280C281C282C28322C5
:03000800D2A02261
:03070500C2A0226D
:1005D900D3E523941EE52294004005E4F522F52392
:1005E900C3741E951EFFE4951DFEC3E5239FE522F6
:0D05F9009E5005D2A4D2A522C2A4C2A52204
:03000B0002065793
:10065700C0E0C0D075D000C006C007758CEC758AA5
:10066700780523E523700205221205D9D007D006A5
:05067700D0D0D0E032FC
:10000E00C2A17F0A7E00120693D2A17F0A7E001241
:05001E000693C2A122BF
:10058B002090062091031206D82090173091141258
:10059B0006E17F1E7E001206931206EA7F327E0072
:1005AB001206933090172091141206E17F1E7E00E5
:1005BB001206931206F37F327E00120693309006DA
:0E05CB003091031206E1E599B439B50206FC41
:10050B00020382E493A3F8E493A34003F68001F281
:10051B0008DFF48029E493A3F85407240CC8C333F1
:10052B00C4540F4420C8834004F456800146F6DFC0
:10053B00E4800B0102040810204080900003E47E4D
:10054B00019360BCA3FF543F30E509541FFEE493B5
:10055B00A360010ECF54C025E060A840B8E493A37C
:10056B00FAE493A3F8E493A3C8C582C8CAC583CAA7
:10057B00F0A3C8C582C8CAC583CADFE9DEE780BE5F
:0100070000F8
:10002600E517240BF8E60517227808300702780B47
:10003600E475F0011204C90204712000EB7F2ED290
:10004600008018EF540F2490D43440D4FF30040BB2
:10005600EF24BFB41A0050032461FFE518600215AF
:1000660018051BE51B7002051A30070D7808E475A4
:10007600F0011204C9EF0204B70206307403D20776
:100086008003E4C207F5178B088A09890AE4F51884
:10009600F51AF51BE51860077F2012006180F575DB
:1000A60019FFC201C200C202C203C205C206C208CB
:1000B60012002FFF700D3007057F00120072AF1B74
:1000C600AE1A22B4255FC2D5C20412002FFF24D077
:1000D600B40A00501A75F00A781830D50508B6FF2C
:1000E6000106C6A426F620D5047002D20380D924C0
:1000F600CFB41A00EF5004C2E5D204020272D20154
:1001060080C6D20080C0D20280BCD2D580BAD205C9
:1001160080B47F201200612002077401B5180040E8
:10012600F1120026FF12006102009AD208D2068060
:1001360095120026FB120026FA120026F94A4B7089
:100146000679437A037BFF20022EE518602A7E009B
:100156008E8275830012048A60060EEE651970F0B1
:10016600C2D5EBC0E0EAC0E0E9C0E0EE1202B9D0C9
:10017600E0F9D0E0FAD0E0FB120471FF60AAEBC010
:10018600E0EAC0E0E9C0E0120061D0E02401F9D065
:10019600E03400FAD0E0FBE5190460DCD519D9801B
:1001A600877BFF7A0279B5D202809C79108002792A
:1001B60008C206C2088008D2D5790A8004790AC224
:1001C600D5E519047002F519E4FAFDFEFF120026C2
:1001D600FC7B08200113120026FD7B1030000A125A
:1001E6000026FE120026FF7B20EC3382D592D550E6
:1001F60013C3E43000069FFFE49EFEE42001039D46
:10020600FDE49CFCE4CBF8C201EC700CCFCECDCC67
:10021600E824F8F870F38017C3EF33FFEE33FEEDF2
:1002260033FDEC33FCEB33FB994002FB0FD8E9EBD3
:10023600300105F8D0E0C448B201C0E00AEC4D4EEA
:100246004F78207B0070C2EAB5190040BCC0E012AE
:1002560002BBD0F0D0E0200104C4C0E0C4B201C0AB
:10026600F012004AD0F0D5F0EB02009A1204D90140
:10027600375301B15801084C01044201B54F01BD85
:0F0286004401BD49011D4301C35501A74601A70E
:100295004501A747036350010C2D01102E01332B97
:1002A500011423013120034C2A00CC480000012B06
:1002B5003F3F3F00790AA2D5200314300509B91044
:1002C500020404B9080104A2D52006025001042045
:1002D50002689202B518005034C0E07F203003193F
:1002E5007F30A20272067205500F120312C202C2BB
:1002F50006C205C2087F30800F300503E9C0E01251
:100305000061300503D0E0F9D0E0B518CC30051711
:100315007F30B9100C1200617F583004077F788058
:1003250003B908031200613002057F2D0200617FC9
:10033500202008F87F2B2006F322920280CF286E1A
:10034500756C6C2900D2011200263001F8C20178C3
:100355001830D50108F60200CC2D5043495812003B
:10036500262403B405004001E490035E9312005275
:0D037500743A120052D2037518040201B14F
:10047100BB010689828A83E0225002E722BBFE0289
:09048100E32289828A83E49322BC
:10048A00BB010CE58229F582E5833AF583E0225027
:10049A0006E92582F8E622BBFE06E92582F8E22271
:0D04AA00E58229F582E5833AF583E493228B
:1004B700BB010689828A83F0225002F722BBFE0124
:0204C700F3221E
:1004C900FAE6FB0808E6F925F0F618E6CA3AF62234
:1004D900D083D082F8E4937012740193700DA3A3B2
:1004E90093F8740193F5828883E4737402936860C6
:0604F900EFA3A3A380DFC6
:10063000EFB40A07740D12063B740A309811A8999A
:10064000B8130CC2983098FDA899C298B811F6302A
:0706500099FDC299F5992202
:00000001FF
